:020000040800F2
:10000000E0040020D9010008371400086512000838
:1000100035140008E502000855170008000000002C
:100020000000000000000000000000003B14000879
:10003000E702000800000000391400083D14000821
:10004000F3010008F3010008F3010008F3010008C0
:10005000F3010008F3010008F3010008F3010008B0
:10006000F3010008F3010008F3010008F3010008A0
:10007000F3010008F3010008F3010008F301000890
:10008000F3010008F3010008F3010008F301000880
:10009000F3010008F3010008F3010008F301000870
:1000A000F3010008F3010008F3010008F301000860
:1000B000F3010008F3010008F3010008F301000850
:1000C000F3010008F3010008F3010008F301000840
:1000D000F301000849170008F3010008F3010008C4
:1000E000F3010008F3010008F3010008F301000820
:1000F000F3010008F3010008F3010008F301000810
:1001000000000000F3010008F3010008F3010008FB
:100110000000000000000000F3010008F3010008E7
:10012000F3010008F3010008F3010008F3010008DF
:10013000F3010008F3010008F3010008F3010008CF
:10014000F3010008F3010008F3010008F3010008BF
:10015000F3010008F3010008F3010008F3010008AF
:10016000F3010008F3010008000000000000000097
:10017000000000000000000000000000000000007F
:10018000F3010008F3010008000000000000000077
:10019000F3010008F3010008000000000000000067
:1001A000000000000000000000000000000000004F
:1001B000F30100080000000000000000F301000847
:1001C000F3010008DFF80CD000F07AF8004800478F
:1001D000F11C0008E004002006488047064800475C
:1001E000FEE7FEE7FEE7FEE7FEE7FEE7FEE7FEE7E7
:1001F000FEE7FEE7D9140008C50100082DE9F05F0D
:100200000546002092469B46884606468146402485
:100210001BE0284641464746224600F041F8534637
:100220005A46C01A914110D311461846224600F092
:1002300028F82D1A67EB01084F46224601200021BD
:1002400000F01FF817EB00094E41201EA4F1010435
:10025000DFDC484631462A464346BDE8F09FD2B22D
:1002600001E000F8012B491EFBD270470022F6E79F
:1002700010B513460A4604461946FFF7F0FF20461C
:1002800010BD202A04DB203A00FA02F1002070475A
:100290009140C2F1200320FA03F3194390407047C4
:1002A000202A04DB203A21FA02F00021704721FACB
:1002B00002F3D040C2F12002914008431946704732
:1002C000064C074D06E0E06840F0010394E80700A3
:1002D00098471034AC42F6D3FFF778FF401E000871
:1002E000601E0008FEE7704770B5B3F5804F05D07B
:1002F0006FF0704140F82210002070BD50F822408D
:10030000084B8E891C40D1E9003543EA05138D68FE
:1003100089692D0245EA06452B430B43234340F8E8
:100320002230E9E70000F0CFF0B50C6850F8243037
:100330001A4A1340D1E90125D1E903672A433E4314
:1003400032434E693243CE6932430E6A32434E6ABB
:1003500032438E6A3243CE6A32430E6B32434E6B67
:100360003243CE6B32438E6B32431A43082D01D198
:1003700042F0400240F824204A6BB2F5801F05D1BC
:100380000A684AB1026842F4801202600A681AB12F
:100390000268896B0A4302600020F0BD8004C0FF40
:1003A000F0B500EB8204626802F04045D1E9002319
:1003B00042EA03128B688E891B0243EA06431A4302
:1003C0000E8A0D4B03EB065632430E7D5F0107EBA1
:1003D000066632438E6932432A4362600268D20263
:1003E00007D54268098A22F4700203EB01511143D8
:1003F00041600020F0BD00000000F0FF2DE9F04159
:100400000446876D00F0C0F9064694F835000025D3
:10041000022806D08020606584F834500120BDE8B1
:10042000F0812068016821F01601016020684169AF
:1004300021F080014161206C08B9A06C20B12068D6
:10044000016821F0080101602068016821F00101C4
:1004500001600BE000F098F9801B052806D92020E8
:10046000606504F8345F03206070D8E72068006896
:10047000C007EFD194F85C103F208840B86004F8C2
:10048000345F012060700020C9E790F83510022920
:1004900003D08021416501207047052180F8351087
:1004A0000068016821F00101016000207047000030
:1004B0002DE9F04186B014216846FFF7D7FE304899
:1004C0000168002959D1012101602E4800240168EA
:1004D00041F0010101600068022500F00100059073
:1004E0000720CDE9000502AA03260C2782E8D000E8
:1004F0006946254800F054F82420CDE9000502AAF9
:10050000DFF8888082E8D0006946404600F048F86D
:100510002C20CDE9000502AA694682E8D0001C48DB
:1005200000F03EF84FF47A40CDE9000502AA694692
:1005300082E8D000174800F033F8E802CDE9000562
:1005400002AA694682E8D000134800F029F84CF26C
:100550008060CDE9000502AA694682E8D0000F4814
:1005600000F01EF8F002CDE9000502940A20CDE962
:1005700003606946404600F013F806B0BDE8F0811C
:1005800000000020383802400014024000080240F9
:10059000000002400010024000040240000C024033
:1005A0002DE9F84FDFF8ACA1002201240AF1040B79
:1005B00003254FF00F090BF1040E00BF0B6804FA7E
:1005C00002F63340B34272D10F7907F00307012FCF
:1005D00001D0022F16D187684FEA420805FA08FCBD
:1005E00027EA0C07D1F80CC00CFA08FC4CEA070CFF
:1005F000C0F808C04768B7430E79C6F300169640A6
:100600003E4346600E79F643B6070AD0C6684FEA05
:10061000420C05FA0CF7BE438F6807FA0CF7374314
:10062000C7600E7906F00306022E10D1D60800EB43
:100630008608D8F8206057074FEAD76C09FA0CF7FC
:10064000BE430F6907FA0CF73743C8F820700668F5
:100650004FEA420C05FA0CF7BE430F7907F0030787
:1006600007FA0CF7374307604E68F6006BD53A4E31
:10067000376847F480473760366822F0030706F48E
:1006800080460096354E07EB060CDCF808689707A5
:100690004FEA177809FA08F7BE43314FB84201D143
:1006A00000271FE02F4FB84202D101271AE04AE08D
:1006B0002D4FB84201D1022714E02C4FB84201D18E
:1006C00003270FE02A4FB84201D104270AE0294F3F
:1006D000B84201D1052705E0274FB84201D10627CE
:1006E00000E0072707FA08F73743CCF80878DAF86C
:1006F00000605746D1F804C09E435FEACC3C00D569
:100700001E433E60DBF800605F46D1F804C09E43A4
:100710005FEA8C3C00D51E433E60DEF80060774601
:10072000D1F804C09E435FEACC2C00D51E433E6046
:10073000084F0C373E68D1F804C09E435FEA8C2C0A
:1007400000D51E433E60521C102AFFF437AFBDE8AF
:10075000F88F0000003C0140443802400030014066
:10076000000002400004024000080240000C024069
:100770000010024000140240001802400AB18161DA
:1007800070470904FBE700000148806870470000DB
:100790000800002002488168027811448160704797
:1007A000080000200B4810B5016841F40071016099
:1007B000016841F480610160016841F48071016069
:1007C000032000F0A9F8002000F006F800F024F85B
:1007D000002010BD003C024070B50D4D04464FF4A2
:1007E0007A712878B1FBF0F00A490968B1FBF0F0A2
:1007F00000F04EFB48B9102C07D200222146501EB3
:1008000000F06AF800206C6070BD012070BD00002F
:1008100008000020180000200A4808B5016841F4CB
:1008200080410160006800F4804000900548001F8E
:10083000016841F080510160006800F08050009034
:1008400008BD0000443802402DE9F04116460F462D
:10085000040004D094F84900002518B107E00120F5
:10086000BDE8F08184F84850204600F025F804F1F6
:1008700008012068FFF758FD3946A2682068FFF795
:100880008FFDD4E901023146236BFFF72DFDA168EE
:10089000206850F8212042F0010240F8212005484C
:1008A0006269012122B1016084F849100020D7E774
:1008B0000560F9E714000020FFF7FABD002809DB06
:1008C00000F01F02012191404009800000F1E0206A
:1008D000C0F8001170470000F0B40E4B1B680C46C6
:1008E000C3F30223C3F10705042D00D90425191D04
:1008F000072901D2002300E0DB1E012606FA05F1DC
:10090000491E214099409E40761E16403143F0BC5E
:1009100000F090BF0CED00E0064900F00702086807
:100920004FF6FF03184040EA0220034A10430860D4
:10093000704700000CED00E00000FA052DE9F047DB
:100940000E46050065D0DFF81481D8F80000F7B234
:1009500000F00700B04207D288F80070D8F8000015
:1009600000F00700B04254D128683D4C810712D5F1
:10097000400703D5206840F4E05020602878000745
:1009800003D5206840F4604020602068A96820F00A
:10099000F000084320602878C0072DD030496868EF
:1009A0000839012812D0022813D0032811D0096871
:1009B000890700292DDA216821F003010143216014
:1009C000FFF7E2FE814641F2883A0EE009688903AA
:1009D000EFE709688901ECE7FFF7D6FEA0EB090114
:1009E000514502D90320BDE8F0872068696800F00E
:1009F0000C00B0EB810FEFD1D8F80010404601F0A9
:100A00000701B14207D90770006800F00700B04243
:100A100001D00120E7E72878400705D52068E9687C
:100A200020F4E050084320602878000706D52068AD
:100A3000296920F4604040EAC100206000F038F8E5
:100A40002168084AC1F30311515CC8400649086097
:100A500006480068FFF7C0FE0020C4E7003C0240E3
:100A600008380240281E0008180000200C00002052
:100A70000448054900680968044AC1F38221515CB1
:100A8000C84070471800002008380240381E00088F
:100A90000448054900680968044AC1F34231515CC1
:100AA000C84070471800002008380240381E00086F
:100AB000154810B5006810F00C02144813D041100E
:100AC000042A0FD0082A0ED10F4C241F2268236855
:100AD00002F03F025B0207D52068C0F38810A0FB3C
:100AE000010106E0084610BD2168C1F38811A1FB91
:100AF00000010023FFF782FB2168C1F30141491C7B
:100B00004900B0FBF1F010BD083802400024F400A9
:100B10002DE9F84F04006ED02078DFF86093C0070D
:100B2000A9F104054AD009F104000168C1F381016B
:100B3000012908D00068C0F3810002280AD1D9F841
:100B40000000400206D52868800337D56068002879
:100B5000E1D033E06068B0F5803F10D0B0F5A02F51
:100B6000286810D020F480302860286820F4802085
:100B700028606068A8B1FFF707FE06460DE0286808
:100B800040F48030F4E740F480202860F7E700BFAD
:100B9000FFF7FAFD801B642873D828688003F7D517
:100BA0000CE0FFF7F1FD064605E000BFFFF7ECFDA6
:100BB000801B6428F0D828688003F7D42078DFF8F9
:100BC000C08280074FF0000A3ED5AC48001D016886
:100BD00011F00C0F08D00068C0F3810002280BD17F
:100BE000D9F80000400207D42868800716D5E068CD
:100BF000012800D112E03CE1E068B8B10120C8F85A
:100C00000000FFF7C1FD064605E000BFFFF7BCFD91
:100C1000801B0228C0D828688007F7D5286821697A
:100C200020F0F80040EAC10028600DE0C8F800A0FC
:100C3000FFF7AAFD064604E0FFF7A6FD801B022889
:100C40001FD828688007F7D42078000722D58B4E5C
:100C50008C486169703671B101210160FFF794FD24
:100C6000074604E0FFF790FDC01B022809D8306852
:100C70008007F7D50EE0C0F800A0FFF785FD074616
:100C800005E082E0FFF780FDC01B02287DD83068B8
:100C90008007F7D42078400768D5DFF8E0B1002757
:100CA0000BF13C0BDBF80000C0000BD4DBF80010AC
:100CB00041F08051CBF80010DBF80000012700F074
:100CC00080500090704E3068C00510D4306840F4F9
:100CD00080703060FFF758FD009005E0FFF754FD8D
:100CE0000099401A022850D83068C005F6D5634EE6
:100CF000A0686C3601280FD00528306810D020F08D
:100D000001003060306820F004003060A068B8B1A5
:100D1000FFF73AFD00900FE0306840F00100F4E783
:100D200040F004003060F7E7FFF72EFD0099411A0C
:100D300041F28830814268D830688007F4D50EE0EF
:100D4000FFF722FD009007E0FFF71EFD0099411A12
:100D500041F28830814258D830688007F4D42FB1EE
:100D6000DBF8001021F08051CBF80010A069D8B357
:100D70004249091D0968C1F3810102294CD00228AA
:100D8000504607D0C8F8600000E03EE0FFF7FCFCEA
:100D900004463DE04746C8F86000FFF7F5FC06460C
:100DA00005E000BFFFF7F0FC801B02282DD8286863
:100DB0008001F7D4F4E907010843E168334A4908A0
:100DC00002EB0141A26841EA82110843217C40EA1A
:100DD0000160217D40EA0171C9F8001001203866E8
:100DE000FFF7D2FC044606E045E000BFFFF7CCFC6D
:100DF000001B022809D828688001F7D53BE000BF16
:100E0000FFF7C2FC001B022802D90320BDE8F88FBF
:100E100028688001F4D42EE00128F7D0D9F800002A
:100E2000E26900F48001914223D1226A00F03F017F
:100E300091421ED147F6C071626A0140B1EB821F38
:100E400017D1A26A4FF0FF3300F4403103EB520296
:100E5000B1EB024F0DD194F82C2000F07061B1EB92
:100E6000026F06D194F8301000F0E040B0EB017F43
:100E700001D00120CAE70020C8E700000438024082
:100E800000004742800E4742007000400000FFFF14
:100E900010B5401EB0F1807F01D3012010BD4FF08E
:100EA000E02460610F21601700F0C4FC0020A06105
:100EB00007202061002010BD70477047F8B5026818
:100EC00004461068D168536910F00F0F4FF0000509
:100ED00053D003F0010601F4907737435FD0C20787
:100EE00005D0CA0503D5226C42F0010222644207F4
:100EF00005D5DA0703D0226C42F002022264820791
:100F000005D5DA0703D0226C42F0040222640207FE
:100F100007D501F02002324303D0226C42F00802D0
:100F20002264226C002A34D0800604D5880602D5BB
:100F3000204600F0F9FA20684069216CC0F3801067
:100F4000090700D430B3204600F0D6FA2068416982
:100F500049061BD5416921F040014161A06BA8B150
:100F600059490165A06BFFF790FA002811D0A06BDA
:100F7000016D01B0BDE8F040084783060FD58B0630
:100F80000DD52046BDE8F84000F0CEBA2046FFF768
:100F900094FFF8BD2046FFF790FF2564F8BD266B4F
:100FA0002023012E53D1C60651D5CE064FD5106849
:100FB00050680090506940062BD5A16B08684068C6
:100FC0000004000CEAD0A68D8642E7D9E085C86906
:100FD000B0F5807F18D0D06820F48070D060206891
:100FE000416921F0010141612068416921F040011E
:100FF000416184F83E3025632068C16821F010010A
:10100000C160A06BFFF7FAF9A08DE18D401A81B2A3
:1010100019E0A08DE18D401A81B2E08D0028BDD08D
:101020000029BBD0D06820F49070D060206842695D
:1010300022F00102426184F83E3025632068C268D4
:1010400022F01002C2602046FFF736FFF8BD050609
:101050002BD50D0629D594F83D002128F6D1A0689E
:10106000B0F5805F01D12069B0B1206A411C2162D6
:10107000216800784860E08C401E0004000CE08489
:10108000E4D12068C16821F08001C1602068C16896
:1010900041F04001C160F8BD206A0088C0F308003B
:1010A0005060206A801C2062E5E74006F3D54806C0
:1010B000F1D5D168204621F04001D16084F83D305F
:1010C00000F0CFF8F8BD0000E914000870B5040086
:1010D00004D094F83D00002510B106E0012070BD59
:1010E00084F83C50204600F023F8242084F83D008A
:1010F0002068C16821F40051C160204600F06CFAFC
:101100002068016921F4904101612068416921F062
:101110002A0141612068C16841F40051C160256421
:10112000202084F83D0084F83E00002070BD0000BF
:1011300010B586B0044614216846FFF797F81849A1
:101140002068884229D117480021026842F0100225
:101150000260006800F01000059012481438026820
:1011600042F001020260006800F0010005904FF4B7
:10117000C06000900220CDE9010103200390072008
:10118000049069460848FFF70BFA00221146252013
:10119000FFF7A2FB2520FFF791FB06B010BD000072
:1011A0000010014044380240000002407047000037
:1011B0002DE9F843044690F83D001F4616460D46BB
:1011C00020284CD1C5B1BEB194F83C00012846D0CE
:1011D000012084F83C004FF00008C4F84080212032
:1011E00084F83D00FFF7D0FAA6848146E684A06823
:1011F000B0F5805F03D004E00120BDE8F8832069EA
:1012000028B12E465FF0000584F83C800EE00026F1
:10121000FAE78021204600F065FAA0B9AEB116F8D1
:10122000010B21684860E08C401EE084E08C4B4656
:101230004FF0000200970028EBD14FF0400120460C
:1012400000F050FA30B10320D7E735F8020BC0F3B5
:101250000800E6E7202084F83D000020CDE70220CA
:10126000CBE77047FEE7000000B587B01C21684659
:10127000FEF7FCFF16484FF0204108220160154997
:10128000416000218160C0E903121022C0E90521FC
:101290001302C161C0E90913C16201634163816343
:1012A000C163016441640F20FF230090CDE9010375
:1012B000CDE903021120CDE9050100226946044869
:1012C000FFF7C2FA002801D072B6FEE707B000BDF2
:1012D00094000020040100A02DE9F04786B01421FD
:1012E0006846FEF7C3FF4C480024016841F0040142
:1012F0000160016801F004010591016841F02001DD
:101300000160016801F020010591016841F0800150
:101310000160016801F080010591016841F001015F
:101320000160016801F001010591016841F00201CD
:101330000160016801F002010591016841F01001AE
:101340000160016801F010010591016841F0080198
:101350000160016801F008010591016841F0400158
:10136000016000682D4F00F040000590002213211D
:101370003846FFF703FADFF8A88044F2810600221E
:1013800031464046FFF7FAF9DFF8989000224C21E9
:101390004846FFF7F3F9DFF890A0002208215046F5
:1013A000FFF7ECF94FF4005000902048CDE901041C
:1013B00069461F48FFF7F4F8132000900125CDE996
:1013C0000154694638460394FFF7EAF80096CDE9E0
:1013D0000154694640460394FFF7E2F84C20009020
:1013E000CDE90154694648460394FFF7D9F88020B7
:1013F000CDE90004694648460294FFF7D1F8082079
:101400000090CDE90154694650460394FFF7C8F8AF
:1014100006B0BDE8F087000030380240000002400E
:101420000004024000180240000C024000001110AD
:1014300000080240FEE7FEE770477047FFF7AAB9D1
:1014400030B593B034216846FEF710FF14210DA883
:10145000FEF70CFF1E480025016841F08051016035
:10146000006800F0805012901A48016841F4404131
:1014700001600068022400F44040129001200090B6
:101480004FF4A02001906005CDE9064008204FF4FC
:10149000C071CDE908010421CDE90A100C94684619
:1014A000FFF736FB08B172B6FEE70DA90F2081E801
:1014B00031004FF48050CDE9100503210DA8FFF74E
:1014C0003DFA002801D072B6FEE713B030BD00002F
:1014D00040380240007000400248016841F4700149
:1014E0000160704788ED00E010B5806B0021C18578
:1014F000C184FFF7E2FC10BD0168CA6822F4907253
:10150000CA6001684A6922F001024A61016B01293F
:1015100004D10168CA6822F01002CA60202180F854
:101520003E1000210163704710B5044690F83E005C
:10153000222801D0022010BDA1684FF480529142B0
:1015400001D1206920B1A06A91421BD049B10AE0C3
:101550002168A06A4968C1F308010180A06A801C63
:1015600008E0216971B12168496801F07F010170CB
:10157000A06A401CA062E08D401E0004000CE085C3
:1015800003D01CE021684968F1E72068C16821F0B8
:101590002001C1602068C16821F48071C1602068A9
:1015A000416921F001014161202084F83E00206B57
:1015B000012806D02046FFF7F9FD00202063002017
:1015C00010BD2068C16821F01001C160A18D2046C6
:1015D000FFF772FCF1E7000070B50446006801698E
:1015E000E26821F44051114301612169A068E26978
:1015F00008436169114308432168CA6849F20C63D2
:101600009A430243CA6020684169A26921F440718B
:101610001143416131492068884202D030498842F3
:1016200002D1FFF735FA01E0FFF722FAE269002361
:10163000192164253226B2F5004F626828D0A0FB3C
:101640000101930F9200FEF7D9FD0146B0FBF5F0C2
:101650006FF01802504301EB800006EB0010B0FB66
:10166000F5F000F0F002B1FBF5F002EB0012B1FB77
:10167000F5F06FF01803584301EB800006EB001003
:10168000B0FBF5F000F00F0021681044886070BDD9
:10169000A0FB010192185B41FEF7B0FD0146B0FBD3
:1016A000F5F00201B1FBF5F06FF01803584301EBC0
:1016B000800006EBC000B0FBF5F000F0F80002EB94
:1016C0004002B1FBF5F0584301EB800006EBC0008F
:1016D000B0FBF5F000F00700D6E700000010014075
:1016E000001401402DE9F041984617460E46044685
:1016F000069D1DE0681C1BD02DB1FFF745F8A0EB3F
:101700000800A84214D92068C16821F4D071C160D2
:101710002068416921F001014161202084F83D00E9
:1017200084F83E00002084F83C000320BDE8F081EE
:101730002068006836EA000004D00020B842D9D002
:101740000020F3E70120F9E70148FFF7B7BB0000ED
:1017500050000020FEE70078704701707047704726
:101760007047000010B500231A460C490C4800F0E1
:10177000EDFA0C490C4800F00BFB002000F026F8B5
:1017800001460AA000F046F84FF4007000F01EF881
:101790000146BDE8104009A000F03CB85B17000806
:1017A000571700085F1700086117000843494452A3
:1017B000203D2025303478200D0A00005645522067
:1017C0003D2025303478200D0A00000070B50F4C04
:1017D0000546A068804720698047C5F30F214FF672
:1017E000FF7000EA0525E2694FF0C0409047E269CA
:1017F0002946074890470648A169801C8847054646
:1018000060698047E0688047284670BD240000205A
:10181000020000600FB4054B10B503A9044A0298FA
:1018200000F028F810BC5DF814FB0000D91C00087B
:101830004C0000200907090E002804DB00F1E0201D
:1018400080F80014704700F00F0000F1E02080F8ED
:10185000141D704702E008C8121F08C1002AFAD1FF
:1018600070477047002001E001C1121F002AFBD120
:10187000704700002DE9FF4F8DB00F46054600264A
:1018800006E025280BD0DDE90F1290476D1C761C71
:1018900028780028F5D111B03046BDE8F08F00243B
:1018A000A246A1460122EC4900E0044315F8013F9D
:1018B000203B02FA03F00842F7D128782A2810D0FA
:1018C0006FF02F022878A0F13001092914D80AEB13
:1018D0008A0102EB410144F0020400EB010A6D1C95
:1018E000F0E701CF5FEA000A03D544F40054CAF1DF
:1018F000000A44F002046D1C28782E2817D115F830
:10190000010F44F004042A280ED06FF02F0228782B
:10191000A0F1300109290AD809EB890102EB410144
:1019200000EB01096D1CF2E757F8049B6D1C287849
:101930006C280FD006DC4C2817D068280DD06A28F8
:1019400014D104E0742810D07A280FD10DE044F4AB
:1019500000140AE044F4801401E044F4401469786F
:10196000814202D104F580146D1C6D1C2A786E2A08
:101970001FD00CDC632A31D004DC002A8BD0582A1B
:1019800011D1A3E0642A68D0692A0CD165E0732ADA
:101990002ED004DC6F2A73D0702A04D19BE0752A04
:1019A0006FD0782A6ED01046DDE90F129047761C72
:1019B00050E1C4F30250022806D0032809D00428BD
:1019C00001CF09D0066045E101CFF117C0E9006100
:1019D00040E101CF06803DE106703BE117F8040BC2
:1019E0008DF8000000208DF80100EB46012003E097
:1019F00057F804BB4FF0FF3061074FF0000102D4ED
:101A00000DE008F10101884649450FDA8045F8DB11
:101A10001BF808100029F4D108E008F101018846FC
:101A20008142FADB1BF808100029F6D1DDE90F230B
:101A3000AAEB08008146214600F036F9304400EB5D
:101A4000080604E0DDE90F121BF8010B9047B8F11E
:101A50000108F7D221464846F7E00A21C4F30253B1
:101A60004FF0000B0891022B04D001CFC117032BBC
:101A700009D00AE0FF1D27F00707F7E8020108E098
:101A800032E01FE020E000B2C117042B01D140B2C8
:101A9000C117031E71F1000307DA4FF0000CD0EB01
:101AA0000C006CEB01012D2302E0230504D52B2350
:101AB0008DF82430012303E0E30701D02023F7E76A
:101AC000984658E00A2110E010210EE010204FF057
:101AD000000B08900CE010214FF0000B44F00404C0
:101AE0004FF00809089103E008214FF0000B08911E
:101AF000C4F30253022B04D001CF0021032B06D0E4
:101B000006E0FF1D27F00707F7E8020103E080B2B7
:101B1000042B00D1C0B24FF0000823072BD5702A48
:101B200007D0DDF820C08CF0100C5CEA0B0C05D05F
:101B30000EE040238DF82430012308E050EA010331
:101B400006D030238DF824308DF8252002239846C6
:101B5000DDF820C08CF0080C5CEA0B0C0BD150EACD
:101B6000010301D1630706D530238DF824304FF0EF
:101B70000108A9F10109582A04D038A20B9208AA39
:101B80000A920BE03AA2F9E75B46089AFEF736FBA9
:101B90000B9B9B5C0A9A521E0A92137050EA010238
:101BA000F2D10A98ADEB000000F1200B600702D5DE
:101BB00024F4803401E04FF00109D94502DDA9EB9E
:101BC0000B0000E0002000EB0B0141440890AAEB61
:101BD000010AE00306D4DDE90F232146504600F058
:101BE00063F806444FF0000908E009A911F809005C
:101BF000DDE90F12904709F10109761CC145F4DBBC
:101C0000E0030CD5DDE90F232146504600F04CF8E7
:101C1000064404E0DDE90F1230209047761C089955
:101C2000481E08900029F5DC08E00A980A99007817
:101C3000491C0A91DDE90F129047761CBBF10001A7
:101C4000ABF1010BF1DC21465046DDE90F2300F03A
:101C500019F806446D1C1BE60928010030313233A7
:101C600034353637383961626364656600000000D8
:101C700030313233343536373839414243444546C2
:101C8000000000002DE9F041044600251E461746DD
:101C9000880404D405E039462020B0476D1C641E3A
:101CA000F9D52846BDE8F0812DE9F041044600252C
:101CB0001E469046C80301D5302700E0202788043F
:101CC00004D505E041463846B0476D1C641EF9D581
:101CD0002846BDE8F081000013B54FF6FF730122DE
:101CE00069460248FFF764FA00981CBD50000020C6
:101CF000FEF758FDFFF7A4FBFFF7EEFAFFF7B4FA83
:101D00000D480C490C2201604FF4E1314160002183
:101D10008160C160C0E904128161C161FFF7D6F939
:101D200008B172B6FEE705A0FFF774FDFFF71AFDD4
:101D3000FEE70000001001405000002048656C6C78
:101D40006F20537461727421210D0A0070B50B4C21
:101D50002588EE05FDD500B90948A06129B1E161EA
:101D600032B122623BB1636270BD0648E061F7E7C1
:101D700005482062F6E70548606270BD2400002037
:101D8000B11D0008E91D0008B51D0008ED1D000883
:101D9000044A00B90448106109B151617047034811
:101DA0005061704724000020271E0008251E0008EF
:101DB000008870472DE9F0471D0090460E46074603
:101DC00000D002250024DFF81C9007E0D9F8181095
:101DD0003846884726F8020B2F44641C4445F5DB3F
:101DE000BDE8F08724000020018070472DE9F0470E
:101DF0001D0090460E46074600D002250024DFF85D
:101E00001C9007E0D9F81C2036F8021B3846904792
:101E10002F44641C4445F5DBBDE8F0872400002016
:101E200070477047704770470000000000000000D6
:101E30000102030406070809000000000102030470
:101E4000601E000800000020500000005418000828
:101E5000B01E000850000020900400006418000824
:101E60000000000000000000010000001000000061
:101E700000000000000000000024F400000000004A
:101E8000000000000201573633303000211E0008E8
:101E9000231E0008271E0008251E0008B11D00088B
:101EA000E91D0008B51D0008ED1D00080000000038
:04000005080001C529
:00000001FF
